:020000040000FA
:020000000528D1
:080008009F2883160313063044
:100010009F0083160313FF308500831603138601A8
:1000200083160313870183120313860183120313BC
:1000300087011A288030C1000130C2002030C3007F
:100040000130C4000830B5000130B6000830B700F8
:100050000230B8000830B9000430C0002F28031166
:100060000310051C4A20851C5920051D6820851D8C
:1000700077208620350886003608870086203708D6
:1000800086003808870086203908860040088700E7
:1000900086202F283708B5003808B6003908B70081
:1000A0004008B800391841083918B900B90C8F2038
:1000B00008003708B5003808B6003908B70040080E
:1000C000B800391B4208391BB900B90D8F20080050
:1000D0003708B5003808B6003908B7004008B8003E
:1000E000401843084018C000C00C8F200800370893
:1000F000B5003808B6003908B7004008B800C01A83
:100100004408C01AC000C00D8F200800E730A000CE
:100110000430A100A00B8D28A10B8A280800033011
:10012000A0001830A1000230A200A00B9828A10B5B
:100130009A28A20B95280000000000000800FD008E
:100140000308FE000A08FF007F088A007E0883007B
:06015000FD0E7D0E09000A
:02400E00313F40
:00000001FF
